{
	"task1/romanToInt.sol": {
		"RomanToInt": {
			"abi": [
				{
					"inputs": [],
					"stateMutability": "nonpayable",
					"type": "constructor"
				},
				{
					"inputs": [
						{
							"internalType": "bytes1",
							"name": "",
							"type": "bytes1"
						}
					],
					"name": "_map",
					"outputs": [
						{
							"internalType": "uint256",
							"name": "",
							"type": "uint256"
						}
					],
					"stateMutability": "view",
					"type": "function"
				},
				{
					"inputs": [
						{
							"internalType": "string",
							"name": "s",
							"type": "string"
						}
					],
					"name": "roman2Int",
					"outputs": [
						{
							"internalType": "uint256",
							"name": "",
							"type": "uint256"
						}
					],
					"stateMutability": "view",
					"type": "function"
				}
			],
			"devdoc": {
				"kind": "dev",
				"methods": {},
				"version": 1
			},
			"evm": {
				"assembly": "    /* \"task1/romanToInt.sol\":1129:2262  contract RomanToInt {... */\n  mstore(0x40, 0x80)\n    /* \"task1/romanToInt.sol\":1200:1447  constructor() {... */\n  callvalue\n  dup1\n  iszero\n  tag_1\n  jumpi\n  0x00\n  dup1\n  revert\ntag_1:\n  pop\n    /* \"task1/romanToInt.sol\":1244:1245  1 */\n  0x01\n    /* \"task1/romanToInt.sol\":1224:1228  _map */\n  0x00\n    /* \"task1/romanToInt.sol\":1224:1241  _map[bytes1(\"I\")] */\n  dup1\n    /* \"task1/romanToInt.sol\":1229:1240  bytes1(\"I\") */\n  0x4900000000000000000000000000000000000000000000000000000000000000\n    /* \"task1/romanToInt.sol\":1224:1241  _map[bytes1(\"I\")] */\n  not(0xffffffffffffffffffffffffffffffffffffffffffffffffffffffffffffff)\n  and\n  not(0xffffffffffffffffffffffffffffffffffffffffffffffffffffffffffffff)\n  and\n  dup2\n  mstore\n  0x20\n  add\n  swap1\n  dup2\n  mstore\n  0x20\n  add\n  0x00\n  keccak256\n    /* \"task1/romanToInt.sol\":1224:1245  _map[bytes1(\"I\")] = 1 */\n  dup2\n  swap1\n  sstore\n  pop\n    /* \"task1/romanToInt.sol\":1275:1276  5 */\n  0x05\n    /* \"task1/romanToInt.sol\":1255:1259  _map */\n  0x00\n    /* \"task1/romanToInt.sol\":1255:1272  _map[bytes1(\"V\")] */\n  dup1\n    /* \"task1/romanToInt.sol\":1260:1271  bytes1(\"V\") */\n  0x5600000000000000000000000000000000000000000000000000000000000000\n    /* \"task1/romanToInt.sol\":1255:1272  _map[bytes1(\"V\")] */\n  not(0xffffffffffffffffffffffffffffffffffffffffffffffffffffffffffffff)\n  and\n  not(0xffffffffffffffffffffffffffffffffffffffffffffffffffffffffffffff)\n  and\n  dup2\n  mstore\n  0x20\n  add\n  swap1\n  dup2\n  mstore\n  0x20\n  add\n  0x00\n  keccak256\n    /* \"task1/romanToInt.sol\":1255:1276  _map[bytes1(\"V\")] = 5 */\n  dup2\n  swap1\n  sstore\n  pop\n    /* \"task1/romanToInt.sol\":1306:1308  10 */\n  0x0a\n    /* \"task1/romanToInt.sol\":1286:1290  _map */\n  0x00\n    /* \"task1/romanToInt.sol\":1286:1303  _map[bytes1(\"X\")] */\n  dup1\n    /* \"task1/romanToInt.sol\":1291:1302  bytes1(\"X\") */\n  0x5800000000000000000000000000000000000000000000000000000000000000\n    /* \"task1/romanToInt.sol\":1286:1303  _map[bytes1(\"X\")] */\n  not(0xffffffffffffffffffffffffffffffffffffffffffffffffffffffffffffff)\n  and\n  not(0xffffffffffffffffffffffffffffffffffffffffffffffffffffffffffffff)\n  and\n  dup2\n  mstore\n  0x20\n  add\n  swap1\n  dup2\n  mstore\n  0x20\n  add\n  0x00\n  keccak256\n    /* \"task1/romanToInt.sol\":1286:1308  _map[bytes1(\"X\")] = 10 */\n  dup2\n  swap1\n  sstore\n  pop\n    /* \"task1/romanToInt.sol\":1338:1340  50 */\n  0x32\n    /* \"task1/romanToInt.sol\":1318:1322  _map */\n  0x00\n    /* \"task1/romanToInt.sol\":1318:1335  _map[bytes1(\"L\")] */\n  dup1\n    /* \"task1/romanToInt.sol\":1323:1334  bytes1(\"L\") */\n  0x4c00000000000000000000000000000000000000000000000000000000000000\n    /* \"task1/romanToInt.sol\":1318:1335  _map[bytes1(\"L\")] */\n  not(0xffffffffffffffffffffffffffffffffffffffffffffffffffffffffffffff)\n  and\n  not(0xffffffffffffffffffffffffffffffffffffffffffffffffffffffffffffff)\n  and\n  dup2\n  mstore\n  0x20\n  add\n  swap1\n  dup2\n  mstore\n  0x20\n  add\n  0x00\n  keccak256\n    /* \"task1/romanToInt.sol\":1318:1340  _map[bytes1(\"L\")] = 50 */\n  dup2\n  swap1\n  sstore\n  pop\n    /* \"task1/romanToInt.sol\":1370:1373  100 */\n  0x64\n    /* \"task1/romanToInt.sol\":1350:1354  _map */\n  0x00\n    /* \"task1/romanToInt.sol\":1350:1367  _map[bytes1(\"C\")] */\n  dup1\n    /* \"task1/romanToInt.sol\":1355:1366  bytes1(\"C\") */\n  0x4300000000000000000000000000000000000000000000000000000000000000\n    /* \"task1/romanToInt.sol\":1350:1367  _map[bytes1(\"C\")] */\n  not(0xffffffffffffffffffffffffffffffffffffffffffffffffffffffffffffff)\n  and\n  not(0xffffffffffffffffffffffffffffffffffffffffffffffffffffffffffffff)\n  and\n  dup2\n  mstore\n  0x20\n  add\n  swap1\n  dup2\n  mstore\n  0x20\n  add\n  0x00\n  keccak256\n    /* \"task1/romanToInt.sol\":1350:1373  _map[bytes1(\"C\")] = 100 */\n  dup2\n  swap1\n  sstore\n  pop\n    /* \"task1/romanToInt.sol\":1403:1406  500 */\n  0x01f4\n    /* \"task1/romanToInt.sol\":1383:1387  _map */\n  0x00\n    /* \"task1/romanToInt.sol\":1383:1400  _map[bytes1(\"D\")] */\n  dup1\n    /* \"task1/romanToInt.sol\":1388:1399  bytes1(\"D\") */\n  0x4400000000000000000000000000000000000000000000000000000000000000\n    /* \"task1/romanToInt.sol\":1383:1400  _map[bytes1(\"D\")] */\n  not(0xffffffffffffffffffffffffffffffffffffffffffffffffffffffffffffff)\n  and\n  not(0xffffffffffffffffffffffffffffffffffffffffffffffffffffffffffffff)\n  and\n  dup2\n  mstore\n  0x20\n  add\n  swap1\n  dup2\n  mstore\n  0x20\n  add\n  0x00\n  keccak256\n    /* \"task1/romanToInt.sol\":1383:1406  _map[bytes1(\"D\")] = 500 */\n  dup2\n  swap1\n  sstore\n  pop\n    /* \"task1/romanToInt.sol\":1436:1440  1000 */\n  0x03e8\n    /* \"task1/romanToInt.sol\":1416:1420  _map */\n  0x00\n    /* \"task1/romanToInt.sol\":1416:1433  _map[bytes1(\"M\")] */\n  dup1\n    /* \"task1/romanToInt.sol\":1421:1432  bytes1(\"M\") */\n  0x4d00000000000000000000000000000000000000000000000000000000000000\n    /* \"task1/romanToInt.sol\":1416:1433  _map[bytes1(\"M\")] */\n  not(0xffffffffffffffffffffffffffffffffffffffffffffffffffffffffffffff)\n  and\n  not(0xffffffffffffffffffffffffffffffffffffffffffffffffffffffffffffff)\n  and\n  dup2\n  mstore\n  0x20\n  add\n  swap1\n  dup2\n  mstore\n  0x20\n  add\n  0x00\n  keccak256\n    /* \"task1/romanToInt.sol\":1416:1440  _map[bytes1(\"M\")] = 1000 */\n  dup2\n  swap1\n  sstore\n  pop\n    /* \"task1/romanToInt.sol\":1129:2262  contract RomanToInt {... */\n  dataSize(sub_0)\n  dup1\n  dataOffset(sub_0)\n  0x00\n  codecopy\n  0x00\n  return\nstop\n\nsub_0: assembly {\n        /* \"task1/romanToInt.sol\":1129:2262  contract RomanToInt {... */\n      mstore(0x40, 0x80)\n      callvalue\n      dup1\n      iszero\n      tag_1\n      jumpi\n      0x00\n      dup1\n      revert\n    tag_1:\n      pop\n      jumpi(tag_2, lt(calldatasize, 0x04))\n      shr(0xe0, calldataload(0x00))\n      dup1\n      0x22a92f2d\n      eq\n      tag_3\n      jumpi\n      dup1\n      0x65992a57\n      eq\n      tag_4\n      jumpi\n    tag_2:\n      0x00\n      dup1\n      revert\n        /* \"task1/romanToInt.sol\":1758:2260  function roman2Int(string memory s) public view returns (uint256) {... */\n    tag_3:\n      tag_5\n      0x04\n      dup1\n      calldatasize\n      sub\n      dup2\n      add\n      swap1\n      tag_6\n      swap2\n      swap1\n      tag_7\n      jump\t// in\n    tag_6:\n      tag_8\n      jump\t// in\n    tag_5:\n      mload(0x40)\n      tag_9\n      swap2\n      swap1\n      tag_10\n      jump\t// in\n    tag_9:\n      mload(0x40)\n      dup1\n      swap2\n      sub\n      swap1\n      return\n        /* \"task1/romanToInt.sol\":1155:1193  mapping(bytes1 => uint256) public _map */\n    tag_4:\n      tag_11\n      0x04\n      dup1\n      calldatasize\n      sub\n      dup2\n      add\n      swap1\n      tag_12\n      swap2\n      swap1\n      tag_13\n      jump\t// in\n    tag_12:\n      tag_14\n      jump\t// in\n    tag_11:\n      mload(0x40)\n      tag_15\n      swap2\n      swap1\n      tag_10\n      jump\t// in\n    tag_15:\n      mload(0x40)\n      dup1\n      swap2\n      sub\n      swap1\n      return\n        /* \"task1/romanToInt.sol\":1758:2260  function roman2Int(string memory s) public view returns (uint256) {... */\n    tag_8:\n        /* \"task1/romanToInt.sol\":1815:1822  uint256 */\n      0x00\n        /* \"task1/romanToInt.sol\":1834:1848  bytes memory b */\n      dup1\n        /* \"task1/romanToInt.sol\":1857:1858  s */\n      dup3\n        /* \"task1/romanToInt.sol\":1834:1859  bytes memory b = bytes(s) */\n      swap1\n      pop\n        /* \"task1/romanToInt.sol\":1869:1880  uint256 len */\n      0x00\n        /* \"task1/romanToInt.sol\":1883:1884  b */\n      dup2\n        /* \"task1/romanToInt.sol\":1883:1891  b.length */\n      mload\n        /* \"task1/romanToInt.sol\":1869:1891  uint256 len = b.length */\n      swap1\n      pop\n        /* \"task1/romanToInt.sol\":1901:1912  uint256 res */\n      0x00\n        /* \"task1/romanToInt.sol\":1926:1938  uint256 last */\n      dup1\n        /* \"task1/romanToInt.sol\":1952:1964  uint256 curr */\n      0x00\n        /* \"task1/romanToInt.sol\":1983:1990  uint8 i */\n      dup1\n        /* \"task1/romanToInt.sol\":1978:2234  for (uint8 i = 0; i < len; i++) {... */\n    tag_17:\n        /* \"task1/romanToInt.sol\":2000:2003  len */\n      dup5\n        /* \"task1/romanToInt.sol\":1996:1997  i */\n      dup2\n        /* \"task1/romanToInt.sol\":1996:2003  i < len */\n      0xff\n      and\n      lt\n        /* \"task1/romanToInt.sol\":1978:2234  for (uint8 i = 0; i < len; i++) {... */\n      iszero\n      tag_18\n      jumpi\n        /* \"task1/romanToInt.sol\":2031:2035  curr */\n      dup2\n        /* \"task1/romanToInt.sol\":2024:2035  last = curr */\n      swap3\n      pop\n        /* \"task1/romanToInt.sol\":2056:2060  _map */\n      0x00\n        /* \"task1/romanToInt.sol\":2056:2066  _map[b[i]] */\n      dup1\n        /* \"task1/romanToInt.sol\":2061:2062  b */\n      dup8\n        /* \"task1/romanToInt.sol\":2063:2064  i */\n      dup4\n        /* \"task1/romanToInt.sol\":2061:2065  b[i] */\n      0xff\n      and\n      dup2\n      mload\n      dup2\n      lt\n      tag_20\n      jumpi\n      tag_21\n      tag_22\n      jump\t// in\n    tag_21:\n    tag_20:\n      0x20\n      add\n      add\n      mload\n      0xf8\n      shr\n      0xf8\n      shl\n        /* \"task1/romanToInt.sol\":2056:2066  _map[b[i]] */\n      not(0xffffffffffffffffffffffffffffffffffffffffffffffffffffffffffffff)\n      and\n      not(0xffffffffffffffffffffffffffffffffffffffffffffffffffffffffffffff)\n      and\n      dup2\n      mstore\n      0x20\n      add\n      swap1\n      dup2\n      mstore\n      0x20\n      add\n      0x00\n      keccak256\n      sload\n        /* \"task1/romanToInt.sol\":2049:2066  curr = _map[b[i]] */\n      swap2\n      pop\n        /* \"task1/romanToInt.sol\":2091:2095  last */\n      dup3\n        /* \"task1/romanToInt.sol\":2084:2088  curr */\n      dup3\n        /* \"task1/romanToInt.sol\":2084:2095  curr > last */\n      gt\n        /* \"task1/romanToInt.sol\":2080:2224  if (curr > last) {... */\n      iszero\n      tag_23\n      jumpi\n        /* \"task1/romanToInt.sol\":2122:2126  curr */\n      dup2\n        /* \"task1/romanToInt.sol\":2115:2126  res += curr */\n      dup5\n      tag_24\n      swap2\n      swap1\n      tag_25\n      jump\t// in\n    tag_24:\n      swap4\n      pop\n        /* \"task1/romanToInt.sol\":2155:2159  last */\n      dup3\n        /* \"task1/romanToInt.sol\":2151:2152  2 */\n      0x02\n        /* \"task1/romanToInt.sol\":2151:2159  2 * last */\n      tag_26\n      swap2\n      swap1\n      tag_27\n      jump\t// in\n    tag_26:\n        /* \"task1/romanToInt.sol\":2144:2159  res -= 2 * last */\n      dup5\n      tag_28\n      swap2\n      swap1\n      tag_29\n      jump\t// in\n    tag_28:\n      swap4\n      pop\n        /* \"task1/romanToInt.sol\":2080:2224  if (curr > last) {... */\n      jump(tag_30)\n    tag_23:\n        /* \"task1/romanToInt.sol\":2205:2209  curr */\n      dup2\n        /* \"task1/romanToInt.sol\":2198:2209  res += curr */\n      dup5\n      tag_31\n      swap2\n      swap1\n      tag_25\n      jump\t// in\n    tag_31:\n      swap4\n      pop\n        /* \"task1/romanToInt.sol\":2080:2224  if (curr > last) {... */\n    tag_30:\n        /* \"task1/romanToInt.sol\":2005:2008  i++ */\n      dup1\n      dup1\n      tag_32\n      swap1\n      tag_33\n      jump\t// in\n    tag_32:\n      swap2\n      pop\n      pop\n        /* \"task1/romanToInt.sol\":1978:2234  for (uint8 i = 0; i < len; i++) {... */\n      jump(tag_17)\n    tag_18:\n      pop\n        /* \"task1/romanToInt.sol\":2250:2253  res */\n      dup3\n        /* \"task1/romanToInt.sol\":2243:2253  return res */\n      swap6\n      pop\n      pop\n      pop\n      pop\n      pop\n      pop\n        /* \"task1/romanToInt.sol\":1758:2260  function roman2Int(string memory s) public view returns (uint256) {... */\n      swap2\n      swap1\n      pop\n      jump\t// out\n        /* \"task1/romanToInt.sol\":1155:1193  mapping(bytes1 => uint256) public _map */\n    tag_14:\n      mstore(0x20, 0x00)\n      dup1\n      0x00\n      mstore\n      keccak256(0x00, 0x40)\n      0x00\n      swap2\n      pop\n      swap1\n      pop\n      sload\n      dup2\n      jump\t// out\n        /* \"#utility.yul\":7:82   */\n    tag_34:\n        /* \"#utility.yul\":40:46   */\n      0x00\n        /* \"#utility.yul\":73:75   */\n      0x40\n        /* \"#utility.yul\":67:76   */\n      mload\n        /* \"#utility.yul\":57:76   */\n      swap1\n      pop\n        /* \"#utility.yul\":7:82   */\n      swap1\n      jump\t// out\n        /* \"#utility.yul\":88:205   */\n    tag_35:\n        /* \"#utility.yul\":197:198   */\n      0x00\n        /* \"#utility.yul\":194:195   */\n      dup1\n        /* \"#utility.yul\":187:199   */\n      revert\n        /* \"#utility.yul\":211:328   */\n    tag_36:\n        /* \"#utility.yul\":320:321   */\n      0x00\n        /* \"#utility.yul\":317:318   */\n      dup1\n        /* \"#utility.yul\":310:322   */\n      revert\n        /* \"#utility.yul\":334:451   */\n    tag_37:\n        /* \"#utility.yul\":443:444   */\n      0x00\n        /* \"#utility.yul\":440:441   */\n      dup1\n        /* \"#utility.yul\":433:445   */\n      revert\n        /* \"#utility.yul\":457:574   */\n    tag_38:\n        /* \"#utility.yul\":566:567   */\n      0x00\n        /* \"#utility.yul\":563:564   */\n      dup1\n        /* \"#utility.yul\":556:568   */\n      revert\n        /* \"#utility.yul\":580:682   */\n    tag_39:\n        /* \"#utility.yul\":621:627   */\n      0x00\n        /* \"#utility.yul\":672:674   */\n      0x1f\n        /* \"#utility.yul\":668:675   */\n      not\n        /* \"#utility.yul\":663:665   */\n      0x1f\n        /* \"#utility.yul\":656:661   */\n      dup4\n        /* \"#utility.yul\":652:666   */\n      add\n        /* \"#utility.yul\":648:676   */\n      and\n        /* \"#utility.yul\":638:676   */\n      swap1\n      pop\n        /* \"#utility.yul\":580:682   */\n      swap2\n      swap1\n      pop\n      jump\t// out\n        /* \"#utility.yul\":688:868   */\n    tag_40:\n        /* \"#utility.yul\":736:813   */\n      0x4e487b7100000000000000000000000000000000000000000000000000000000\n        /* \"#utility.yul\":733:734   */\n      0x00\n        /* \"#utility.yul\":726:814   */\n      mstore\n        /* \"#utility.yul\":833:837   */\n      0x41\n        /* \"#utility.yul\":830:831   */\n      0x04\n        /* \"#utility.yul\":823:838   */\n      mstore\n        /* \"#utility.yul\":857:861   */\n      0x24\n        /* \"#utility.yul\":854:855   */\n      0x00\n        /* \"#utility.yul\":847:862   */\n      revert\n        /* \"#utility.yul\":874:1155   */\n    tag_41:\n        /* \"#utility.yul\":957:984   */\n      tag_63\n        /* \"#utility.yul\":979:983   */\n      dup3\n        /* \"#utility.yul\":957:984   */\n      tag_39\n      jump\t// in\n    tag_63:\n        /* \"#utility.yul\":949:955   */\n      dup2\n        /* \"#utility.yul\":945:985   */\n      add\n        /* \"#utility.yul\":1087:1093   */\n      dup2\n        /* \"#utility.yul\":1075:1085   */\n      dup2\n        /* \"#utility.yul\":1072:1094   */\n      lt\n        /* \"#utility.yul\":1051:1069   */\n      0xffffffffffffffff\n        /* \"#utility.yul\":1039:1049   */\n      dup3\n        /* \"#utility.yul\":1036:1070   */\n      gt\n        /* \"#utility.yul\":1033:1095   */\n      or\n        /* \"#utility.yul\":1030:1118   */\n      iszero\n      tag_64\n      jumpi\n        /* \"#utility.yul\":1098:1116   */\n      tag_65\n      tag_40\n      jump\t// in\n    tag_65:\n        /* \"#utility.yul\":1030:1118   */\n    tag_64:\n        /* \"#utility.yul\":1138:1148   */\n      dup1\n        /* \"#utility.yul\":1134:1136   */\n      0x40\n        /* \"#utility.yul\":1127:1149   */\n      mstore\n        /* \"#utility.yul\":917:1155   */\n      pop\n        /* \"#utility.yul\":874:1155   */\n      pop\n      pop\n      jump\t// out\n        /* \"#utility.yul\":1161:1290   */\n    tag_42:\n        /* \"#utility.yul\":1195:1201   */\n      0x00\n        /* \"#utility.yul\":1222:1242   */\n      tag_67\n      tag_34\n      jump\t// in\n    tag_67:\n        /* \"#utility.yul\":1212:1242   */\n      swap1\n      pop\n        /* \"#utility.yul\":1251:1284   */\n      tag_68\n        /* \"#utility.yul\":1279:1283   */\n      dup3\n        /* \"#utility.yul\":1271:1277   */\n      dup3\n        /* \"#utility.yul\":1251:1284   */\n      tag_41\n      jump\t// in\n    tag_68:\n        /* \"#utility.yul\":1161:1290   */\n      swap2\n      swap1\n      pop\n      jump\t// out\n        /* \"#utility.yul\":1296:1604   */\n    tag_43:\n        /* \"#utility.yul\":1358:1362   */\n      0x00\n        /* \"#utility.yul\":1448:1466   */\n      0xffffffffffffffff\n        /* \"#utility.yul\":1440:1446   */\n      dup3\n        /* \"#utility.yul\":1437:1467   */\n      gt\n        /* \"#utility.yul\":1434:1490   */\n      iszero\n      tag_70\n      jumpi\n        /* \"#utility.yul\":1470:1488   */\n      tag_71\n      tag_40\n      jump\t// in\n    tag_71:\n        /* \"#utility.yul\":1434:1490   */\n    tag_70:\n        /* \"#utility.yul\":1508:1537   */\n      tag_72\n        /* \"#utility.yul\":1530:1536   */\n      dup3\n        /* \"#utility.yul\":1508:1537   */\n      tag_39\n      jump\t// in\n    tag_72:\n        /* \"#utility.yul\":1500:1537   */\n      swap1\n      pop\n        /* \"#utility.yul\":1592:1596   */\n      0x20\n        /* \"#utility.yul\":1586:1590   */\n      dup2\n        /* \"#utility.yul\":1582:1597   */\n      add\n        /* \"#utility.yul\":1574:1597   */\n      swap1\n      pop\n        /* \"#utility.yul\":1296:1604   */\n      swap2\n      swap1\n      pop\n      jump\t// out\n        /* \"#utility.yul\":1610:1758   */\n    tag_44:\n        /* \"#utility.yul\":1708:1714   */\n      dup3\n        /* \"#utility.yul\":1703:1706   */\n      dup2\n        /* \"#utility.yul\":1698:1701   */\n      dup4\n        /* \"#utility.yul\":1685:1715   */\n      calldatacopy\n        /* \"#utility.yul\":1749:1750   */\n      0x00\n        /* \"#utility.yul\":1740:1746   */\n      dup4\n        /* \"#utility.yul\":1735:1738   */\n      dup4\n        /* \"#utility.yul\":1731:1747   */\n      add\n        /* \"#utility.yul\":1724:1751   */\n      mstore\n        /* \"#utility.yul\":1610:1758   */\n      pop\n      pop\n      pop\n      jump\t// out\n        /* \"#utility.yul\":1764:2189   */\n    tag_45:\n        /* \"#utility.yul\":1842:1847   */\n      0x00\n        /* \"#utility.yul\":1867:1933   */\n      tag_75\n        /* \"#utility.yul\":1883:1932   */\n      tag_76\n        /* \"#utility.yul\":1925:1931   */\n      dup5\n        /* \"#utility.yul\":1883:1932   */\n      tag_43\n      jump\t// in\n    tag_76:\n        /* \"#utility.yul\":1867:1933   */\n      tag_42\n      jump\t// in\n    tag_75:\n        /* \"#utility.yul\":1858:1933   */\n      swap1\n      pop\n        /* \"#utility.yul\":1956:1962   */\n      dup3\n        /* \"#utility.yul\":1949:1954   */\n      dup2\n        /* \"#utility.yul\":1942:1963   */\n      mstore\n        /* \"#utility.yul\":1994:1998   */\n      0x20\n        /* \"#utility.yul\":1987:1992   */\n      dup2\n        /* \"#utility.yul\":1983:1999   */\n      add\n        /* \"#utility.yul\":2032:2035   */\n      dup5\n        /* \"#utility.yul\":2023:2029   */\n      dup5\n        /* \"#utility.yul\":2018:2021   */\n      dup5\n        /* \"#utility.yul\":2014:2030   */\n      add\n        /* \"#utility.yul\":2011:2036   */\n      gt\n        /* \"#utility.yul\":2008:2120   */\n      iszero\n      tag_77\n      jumpi\n        /* \"#utility.yul\":2039:2118   */\n      tag_78\n      tag_38\n      jump\t// in\n    tag_78:\n        /* \"#utility.yul\":2008:2120   */\n    tag_77:\n        /* \"#utility.yul\":2129:2183   */\n      tag_79\n        /* \"#utility.yul\":2176:2182   */\n      dup5\n        /* \"#utility.yul\":2171:2174   */\n      dup3\n        /* \"#utility.yul\":2166:2169   */\n      dup6\n        /* \"#utility.yul\":2129:2183   */\n      tag_44\n      jump\t// in\n    tag_79:\n        /* \"#utility.yul\":1848:2189   */\n      pop\n        /* \"#utility.yul\":1764:2189   */\n      swap4\n      swap3\n      pop\n      pop\n      pop\n      jump\t// out\n        /* \"#utility.yul\":2209:2549   */\n    tag_46:\n        /* \"#utility.yul\":2265:2270   */\n      0x00\n        /* \"#utility.yul\":2314:2317   */\n      dup3\n        /* \"#utility.yul\":2307:2311   */\n      0x1f\n        /* \"#utility.yul\":2299:2305   */\n      dup4\n        /* \"#utility.yul\":2295:2312   */\n      add\n        /* \"#utility.yul\":2291:2318   */\n      slt\n        /* \"#utility.yul\":2281:2403   */\n      tag_81\n      jumpi\n        /* \"#utility.yul\":2322:2401   */\n      tag_82\n      tag_37\n      jump\t// in\n    tag_82:\n        /* \"#utility.yul\":2281:2403   */\n    tag_81:\n        /* \"#utility.yul\":2439:2445   */\n      dup2\n        /* \"#utility.yul\":2426:2446   */\n      calldataload\n        /* \"#utility.yul\":2464:2543   */\n      tag_83\n        /* \"#utility.yul\":2539:2542   */\n      dup5\n        /* \"#utility.yul\":2531:2537   */\n      dup3\n        /* \"#utility.yul\":2524:2528   */\n      0x20\n        /* \"#utility.yul\":2516:2522   */\n      dup7\n        /* \"#utility.yul\":2512:2529   */\n      add\n        /* \"#utility.yul\":2464:2543   */\n      tag_45\n      jump\t// in\n    tag_83:\n        /* \"#utility.yul\":2455:2543   */\n      swap2\n      pop\n        /* \"#utility.yul\":2271:2549   */\n      pop\n        /* \"#utility.yul\":2209:2549   */\n      swap3\n      swap2\n      pop\n      pop\n      jump\t// out\n        /* \"#utility.yul\":2555:3064   */\n    tag_7:\n        /* \"#utility.yul\":2624:2630   */\n      0x00\n        /* \"#utility.yul\":2673:2675   */\n      0x20\n        /* \"#utility.yul\":2661:2670   */\n      dup3\n        /* \"#utility.yul\":2652:2659   */\n      dup5\n        /* \"#utility.yul\":2648:2671   */\n      sub\n        /* \"#utility.yul\":2644:2676   */\n      slt\n        /* \"#utility.yul\":2641:2760   */\n      iszero\n      tag_85\n      jumpi\n        /* \"#utility.yul\":2679:2758   */\n      tag_86\n      tag_35\n      jump\t// in\n    tag_86:\n        /* \"#utility.yul\":2641:2760   */\n    tag_85:\n        /* \"#utility.yul\":2827:2828   */\n      0x00\n        /* \"#utility.yul\":2816:2825   */\n      dup3\n        /* \"#utility.yul\":2812:2829   */\n      add\n        /* \"#utility.yul\":2799:2830   */\n      calldataload\n        /* \"#utility.yul\":2857:2875   */\n      0xffffffffffffffff\n        /* \"#utility.yul\":2849:2855   */\n      dup2\n        /* \"#utility.yul\":2846:2876   */\n      gt\n        /* \"#utility.yul\":2843:2960   */\n      iszero\n      tag_87\n      jumpi\n        /* \"#utility.yul\":2879:2958   */\n      tag_88\n      tag_36\n      jump\t// in\n    tag_88:\n        /* \"#utility.yul\":2843:2960   */\n    tag_87:\n        /* \"#utility.yul\":2984:3047   */\n      tag_89\n        /* \"#utility.yul\":3039:3046   */\n      dup5\n        /* \"#utility.yul\":3030:3036   */\n      dup3\n        /* \"#utility.yul\":3019:3028   */\n      dup6\n        /* \"#utility.yul\":3015:3037   */\n      add\n        /* \"#utility.yul\":2984:3047   */\n      tag_46\n      jump\t// in\n    tag_89:\n        /* \"#utility.yul\":2974:3047   */\n      swap2\n      pop\n        /* \"#utility.yul\":2770:3057   */\n      pop\n        /* \"#utility.yul\":2555:3064   */\n      swap3\n      swap2\n      pop\n      pop\n      jump\t// out\n        /* \"#utility.yul\":3070:3147   */\n    tag_47:\n        /* \"#utility.yul\":3107:3114   */\n      0x00\n        /* \"#utility.yul\":3136:3141   */\n      dup2\n        /* \"#utility.yul\":3125:3141   */\n      swap1\n      pop\n        /* \"#utility.yul\":3070:3147   */\n      swap2\n      swap1\n      pop\n      jump\t// out\n        /* \"#utility.yul\":3153:3271   */\n    tag_48:\n        /* \"#utility.yul\":3240:3264   */\n      tag_92\n        /* \"#utility.yul\":3258:3263   */\n      dup2\n        /* \"#utility.yul\":3240:3264   */\n      tag_47\n      jump\t// in\n    tag_92:\n        /* \"#utility.yul\":3235:3238   */\n      dup3\n        /* \"#utility.yul\":3228:3265   */\n      mstore\n        /* \"#utility.yul\":3153:3271   */\n      pop\n      pop\n      jump\t// out\n        /* \"#utility.yul\":3277:3499   */\n    tag_10:\n        /* \"#utility.yul\":3370:3374   */\n      0x00\n        /* \"#utility.yul\":3408:3410   */\n      0x20\n        /* \"#utility.yul\":3397:3406   */\n      dup3\n        /* \"#utility.yul\":3393:3411   */\n      add\n        /* \"#utility.yul\":3385:3411   */\n      swap1\n      pop\n        /* \"#utility.yul\":3421:3492   */\n      tag_94\n        /* \"#utility.yul\":3489:3490   */\n      0x00\n        /* \"#utility.yul\":3478:3487   */\n      dup4\n        /* \"#utility.yul\":3474:3491   */\n      add\n        /* \"#utility.yul\":3465:3471   */\n      dup5\n        /* \"#utility.yul\":3421:3492   */\n      tag_48\n      jump\t// in\n    tag_94:\n        /* \"#utility.yul\":3277:3499   */\n      swap3\n      swap2\n      pop\n      pop\n      jump\t// out\n        /* \"#utility.yul\":3505:3654   */\n    tag_49:\n        /* \"#utility.yul\":3541:3548   */\n      0x00\n        /* \"#utility.yul\":3581:3647   */\n      0xff00000000000000000000000000000000000000000000000000000000000000\n        /* \"#utility.yul\":3574:3579   */\n      dup3\n        /* \"#utility.yul\":3570:3648   */\n      and\n        /* \"#utility.yul\":3559:3648   */\n      swap1\n      pop\n        /* \"#utility.yul\":3505:3654   */\n      swap2\n      swap1\n      pop\n      jump\t// out\n        /* \"#utility.yul\":3660:3780   */\n    tag_50:\n        /* \"#utility.yul\":3732:3755   */\n      tag_97\n        /* \"#utility.yul\":3749:3754   */\n      dup2\n        /* \"#utility.yul\":3732:3755   */\n      tag_49\n      jump\t// in\n    tag_97:\n        /* \"#utility.yul\":3725:3730   */\n      dup2\n        /* \"#utility.yul\":3722:3756   */\n      eq\n        /* \"#utility.yul\":3712:3774   */\n      tag_98\n      jumpi\n        /* \"#utility.yul\":3770:3771   */\n      0x00\n        /* \"#utility.yul\":3767:3768   */\n      dup1\n        /* \"#utility.yul\":3760:3772   */\n      revert\n        /* \"#utility.yul\":3712:3774   */\n    tag_98:\n        /* \"#utility.yul\":3660:3780   */\n      pop\n      jump\t// out\n        /* \"#utility.yul\":3786:3923   */\n    tag_51:\n        /* \"#utility.yul\":3831:3836   */\n      0x00\n        /* \"#utility.yul\":3869:3875   */\n      dup2\n        /* \"#utility.yul\":3856:3876   */\n      calldataload\n        /* \"#utility.yul\":3847:3876   */\n      swap1\n      pop\n        /* \"#utility.yul\":3885:3917   */\n      tag_100\n        /* \"#utility.yul\":3911:3916   */\n      dup2\n        /* \"#utility.yul\":3885:3917   */\n      tag_50\n      jump\t// in\n    tag_100:\n        /* \"#utility.yul\":3786:3923   */\n      swap3\n      swap2\n      pop\n      pop\n      jump\t// out\n        /* \"#utility.yul\":3929:4256   */\n    tag_13:\n        /* \"#utility.yul\":3987:3993   */\n      0x00\n        /* \"#utility.yul\":4036:4038   */\n      0x20\n        /* \"#utility.yul\":4024:4033   */\n      dup3\n        /* \"#utility.yul\":4015:4022   */\n      dup5\n        /* \"#utility.yul\":4011:4034   */\n      sub\n        /* \"#utility.yul\":4007:4039   */\n      slt\n        /* \"#utility.yul\":4004:4123   */\n      iszero\n      tag_102\n      jumpi\n        /* \"#utility.yul\":4042:4121   */\n      tag_103\n      tag_35\n      jump\t// in\n    tag_103:\n        /* \"#utility.yul\":4004:4123   */\n    tag_102:\n        /* \"#utility.yul\":4162:4163   */\n      0x00\n        /* \"#utility.yul\":4187:4239   */\n      tag_104\n        /* \"#utility.yul\":4231:4238   */\n      dup5\n        /* \"#utility.yul\":4222:4228   */\n      dup3\n        /* \"#utility.yul\":4211:4220   */\n      dup6\n        /* \"#utility.yul\":4207:4229   */\n      add\n        /* \"#utility.yul\":4187:4239   */\n      tag_51\n      jump\t// in\n    tag_104:\n        /* \"#utility.yul\":4177:4239   */\n      swap2\n      pop\n        /* \"#utility.yul\":4133:4249   */\n      pop\n        /* \"#utility.yul\":3929:4256   */\n      swap3\n      swap2\n      pop\n      pop\n      jump\t// out\n        /* \"#utility.yul\":4262:4442   */\n    tag_22:\n        /* \"#utility.yul\":4310:4387   */\n      0x4e487b7100000000000000000000000000000000000000000000000000000000\n        /* \"#utility.yul\":4307:4308   */\n      0x00\n        /* \"#utility.yul\":4300:4388   */\n      mstore\n        /* \"#utility.yul\":4407:4411   */\n      0x32\n        /* \"#utility.yul\":4404:4405   */\n      0x04\n        /* \"#utility.yul\":4397:4412   */\n      mstore\n        /* \"#utility.yul\":4431:4435   */\n      0x24\n        /* \"#utility.yul\":4428:4429   */\n      0x00\n        /* \"#utility.yul\":4421:4436   */\n      revert\n        /* \"#utility.yul\":4448:4628   */\n    tag_52:\n        /* \"#utility.yul\":4496:4573   */\n      0x4e487b7100000000000000000000000000000000000000000000000000000000\n        /* \"#utility.yul\":4493:4494   */\n      0x00\n        /* \"#utility.yul\":4486:4574   */\n      mstore\n        /* \"#utility.yul\":4593:4597   */\n      0x11\n        /* \"#utility.yul\":4590:4591   */\n      0x04\n        /* \"#utility.yul\":4583:4598   */\n      mstore\n        /* \"#utility.yul\":4617:4621   */\n      0x24\n        /* \"#utility.yul\":4614:4615   */\n      0x00\n        /* \"#utility.yul\":4607:4622   */\n      revert\n        /* \"#utility.yul\":4634:4825   */\n    tag_25:\n        /* \"#utility.yul\":4674:4677   */\n      0x00\n        /* \"#utility.yul\":4693:4713   */\n      tag_108\n        /* \"#utility.yul\":4711:4712   */\n      dup3\n        /* \"#utility.yul\":4693:4713   */\n      tag_47\n      jump\t// in\n    tag_108:\n        /* \"#utility.yul\":4688:4713   */\n      swap2\n      pop\n        /* \"#utility.yul\":4727:4747   */\n      tag_109\n        /* \"#utility.yul\":4745:4746   */\n      dup4\n        /* \"#utility.yul\":4727:4747   */\n      tag_47\n      jump\t// in\n    tag_109:\n        /* \"#utility.yul\":4722:4747   */\n      swap3\n      pop\n        /* \"#utility.yul\":4770:4771   */\n      dup3\n        /* \"#utility.yul\":4767:4768   */\n      dup3\n        /* \"#utility.yul\":4763:4772   */\n      add\n        /* \"#utility.yul\":4756:4772   */\n      swap1\n      pop\n        /* \"#utility.yul\":4791:4794   */\n      dup1\n        /* \"#utility.yul\":4788:4789   */\n      dup3\n        /* \"#utility.yul\":4785:4795   */\n      gt\n        /* \"#utility.yul\":4782:4818   */\n      iszero\n      tag_110\n      jumpi\n        /* \"#utility.yul\":4798:4816   */\n      tag_111\n      tag_52\n      jump\t// in\n    tag_111:\n        /* \"#utility.yul\":4782:4818   */\n    tag_110:\n        /* \"#utility.yul\":4634:4825   */\n      swap3\n      swap2\n      pop\n      pop\n      jump\t// out\n        /* \"#utility.yul\":4831:5241   */\n    tag_27:\n        /* \"#utility.yul\":4871:4878   */\n      0x00\n        /* \"#utility.yul\":4894:4914   */\n      tag_113\n        /* \"#utility.yul\":4912:4913   */\n      dup3\n        /* \"#utility.yul\":4894:4914   */\n      tag_47\n      jump\t// in\n    tag_113:\n        /* \"#utility.yul\":4889:4914   */\n      swap2\n      pop\n        /* \"#utility.yul\":4928:4948   */\n      tag_114\n        /* \"#utility.yul\":4946:4947   */\n      dup4\n        /* \"#utility.yul\":4928:4948   */\n      tag_47\n      jump\t// in\n    tag_114:\n        /* \"#utility.yul\":4923:4948   */\n      swap3\n      pop\n        /* \"#utility.yul\":4983:4984   */\n      dup3\n        /* \"#utility.yul\":4980:4981   */\n      dup3\n        /* \"#utility.yul\":4976:4985   */\n      mul\n        /* \"#utility.yul\":5005:5035   */\n      tag_115\n        /* \"#utility.yul\":5023:5034   */\n      dup2\n        /* \"#utility.yul\":5005:5035   */\n      tag_47\n      jump\t// in\n    tag_115:\n        /* \"#utility.yul\":4994:5035   */\n      swap2\n      pop\n        /* \"#utility.yul\":5184:5185   */\n      dup3\n        /* \"#utility.yul\":5175:5182   */\n      dup3\n        /* \"#utility.yul\":5171:5186   */\n      div\n        /* \"#utility.yul\":5168:5169   */\n      dup5\n        /* \"#utility.yul\":5165:5187   */\n      eq\n        /* \"#utility.yul\":5145:5146   */\n      dup4\n        /* \"#utility.yul\":5138:5147   */\n      iszero\n        /* \"#utility.yul\":5118:5201   */\n      or\n        /* \"#utility.yul\":5095:5234   */\n      tag_116\n      jumpi\n        /* \"#utility.yul\":5214:5232   */\n      tag_117\n      tag_52\n      jump\t// in\n    tag_117:\n        /* \"#utility.yul\":5095:5234   */\n    tag_116:\n        /* \"#utility.yul\":4879:5241   */\n      pop\n        /* \"#utility.yul\":4831:5241   */\n      swap3\n      swap2\n      pop\n      pop\n      jump\t// out\n        /* \"#utility.yul\":5247:5441   */\n    tag_29:\n        /* \"#utility.yul\":5287:5291   */\n      0x00\n        /* \"#utility.yul\":5307:5327   */\n      tag_119\n        /* \"#utility.yul\":5325:5326   */\n      dup3\n        /* \"#utility.yul\":5307:5327   */\n      tag_47\n      jump\t// in\n    tag_119:\n        /* \"#utility.yul\":5302:5327   */\n      swap2\n      pop\n        /* \"#utility.yul\":5341:5361   */\n      tag_120\n        /* \"#utility.yul\":5359:5360   */\n      dup4\n        /* \"#utility.yul\":5341:5361   */\n      tag_47\n      jump\t// in\n    tag_120:\n        /* \"#utility.yul\":5336:5361   */\n      swap3\n      pop\n        /* \"#utility.yul\":5385:5386   */\n      dup3\n        /* \"#utility.yul\":5382:5383   */\n      dup3\n        /* \"#utility.yul\":5378:5387   */\n      sub\n        /* \"#utility.yul\":5370:5387   */\n      swap1\n      pop\n        /* \"#utility.yul\":5409:5410   */\n      dup2\n        /* \"#utility.yul\":5403:5407   */\n      dup2\n        /* \"#utility.yul\":5400:5411   */\n      gt\n        /* \"#utility.yul\":5397:5434   */\n      iszero\n      tag_121\n      jumpi\n        /* \"#utility.yul\":5414:5432   */\n      tag_122\n      tag_52\n      jump\t// in\n    tag_122:\n        /* \"#utility.yul\":5397:5434   */\n    tag_121:\n        /* \"#utility.yul\":5247:5441   */\n      swap3\n      swap2\n      pop\n      pop\n      jump\t// out\n        /* \"#utility.yul\":5447:5533   */\n    tag_53:\n        /* \"#utility.yul\":5482:5489   */\n      0x00\n        /* \"#utility.yul\":5522:5526   */\n      0xff\n        /* \"#utility.yul\":5515:5520   */\n      dup3\n        /* \"#utility.yul\":5511:5527   */\n      and\n        /* \"#utility.yul\":5500:5527   */\n      swap1\n      pop\n        /* \"#utility.yul\":5447:5533   */\n      swap2\n      swap1\n      pop\n      jump\t// out\n        /* \"#utility.yul\":5539:5706   */\n    tag_33:\n        /* \"#utility.yul\":5576:5579   */\n      0x00\n        /* \"#utility.yul\":5599:5621   */\n      tag_125\n        /* \"#utility.yul\":5615:5620   */\n      dup3\n        /* \"#utility.yul\":5599:5621   */\n      tag_53\n      jump\t// in\n    tag_125:\n        /* \"#utility.yul\":5590:5621   */\n      swap2\n      pop\n        /* \"#utility.yul\":5643:5647   */\n      0xff\n        /* \"#utility.yul\":5636:5641   */\n      dup3\n        /* \"#utility.yul\":5633:5648   */\n      sub\n        /* \"#utility.yul\":5630:5671   */\n      tag_126\n      jumpi\n        /* \"#utility.yul\":5651:5669   */\n      tag_127\n      tag_52\n      jump\t// in\n    tag_127:\n        /* \"#utility.yul\":5630:5671   */\n    tag_126:\n        /* \"#utility.yul\":5698:5699   */\n      0x01\n        /* \"#utility.yul\":5691:5696   */\n      dup3\n        /* \"#utility.yul\":5687:5700   */\n      add\n        /* \"#utility.yul\":5680:5700   */\n      swap1\n      pop\n        /* \"#utility.yul\":5539:5706   */\n      swap2\n      swap1\n      pop\n      jump\t// out\n\n    auxdata: 0xa2646970667358221220e945c3093630f6b82ef9160134b8697923e16207c6c682b489a3553ace3e150764736f6c634300081a0033\n}\n",
				"bytecode": {
					"linkReferences": {},
					"object": "608060405234801561000f575f80fd5b5060015f807f49000000000000000000000000000000000000000000000000000000000000007effffffffffffffffffffffffffffffffffffffffffffffffffffffffffffff19167effffffffffffffffffffffffffffffffffffffffffffffffffffffffffffff191681526020019081526020015f208190555060055f807f56000000000000000000000000000000000000000000000000000000000000007effffffffffffffffffffffffffffffffffffffffffffffffffffffffffffff19167effffffffffffffffffffffffffffffffffffffffffffffffffffffffffffff191681526020019081526020015f2081905550600a5f807f58000000000000000000000000000000000000000000000000000000000000007effffffffffffffffffffffffffffffffffffffffffffffffffffffffffffff19167effffffffffffffffffffffffffffffffffffffffffffffffffffffffffffff191681526020019081526020015f208190555060325f807f4c000000000000000000000000000000000000000000000000000000000000007effffffffffffffffffffffffffffffffffffffffffffffffffffffffffffff19167effffffffffffffffffffffffffffffffffffffffffffffffffffffffffffff191681526020019081526020015f208190555060645f807f43000000000000000000000000000000000000000000000000000000000000007effffffffffffffffffffffffffffffffffffffffffffffffffffffffffffff19167effffffffffffffffffffffffffffffffffffffffffffffffffffffffffffff191681526020019081526020015f20819055506101f45f807f44000000000000000000000000000000000000000000000000000000000000007effffffffffffffffffffffffffffffffffffffffffffffffffffffffffffff19167effffffffffffffffffffffffffffffffffffffffffffffffffffffffffffff191681526020019081526020015f20819055506103e85f807f4d000000000000000000000000000000000000000000000000000000000000007effffffffffffffffffffffffffffffffffffffffffffffffffffffffffffff19167effffffffffffffffffffffffffffffffffffffffffffffffffffffffffffff191681526020019081526020015f2081905550610555806103755f395ff3fe608060405234801561000f575f80fd5b5060043610610034575f3560e01c806322a92f2d1461003857806365992a5714610068575b5f80fd5b610052600480360381019061004d91906102f2565b610098565b60405161005f9190610351565b60405180910390f35b610082600480360381019061007d91906103bf565b610191565b60405161008f9190610351565b60405180910390f35b5f808290505f815190505f805f805b848160ff161015610183578192505f80878360ff16815181106100cd576100cc6103ea565b5b602001015160f81c60f81b7effffffffffffffffffffffffffffffffffffffffffffffffffffffffffffff19167effffffffffffffffffffffffffffffffffffffffffffffffffffffffffffff191681526020019081526020015f20549150828211156101615781846101409190610444565b935082600261014f9190610477565b8461015a91906104b8565b9350610170565b818461016d9190610444565b93505b808061017b906104f7565b9150506100a7565b508295505050505050919050565b5f602052805f5260405f205f915090505481565b5f604051905090565b5f80fd5b5f80fd5b5f80fd5b5f80fd5b5f601f19601f8301169050919050565b7f4e487b71000000000000000000000000000000000000000000000000000000005f52604160045260245ffd5b610204826101be565b810181811067ffffffffffffffff82111715610223576102226101ce565b5b80604052505050565b5f6102356101a5565b905061024182826101fb565b919050565b5f67ffffffffffffffff8211156102605761025f6101ce565b5b610269826101be565b9050602081019050919050565b828183375f83830152505050565b5f61029661029184610246565b61022c565b9050828152602081018484840111156102b2576102b16101ba565b5b6102bd848285610276565b509392505050565b5f82601f8301126102d9576102d86101b6565b5b81356102e9848260208601610284565b91505092915050565b5f60208284031215610307576103066101ae565b5b5f82013567ffffffffffffffff811115610324576103236101b2565b5b610330848285016102c5565b91505092915050565b5f819050919050565b61034b81610339565b82525050565b5f6020820190506103645f830184610342565b92915050565b5f7fff0000000000000000000000000000000000000000000000000000000000000082169050919050565b61039e8161036a565b81146103a8575f80fd5b50565b5f813590506103b981610395565b92915050565b5f602082840312156103d4576103d36101ae565b5b5f6103e1848285016103ab565b91505092915050565b7f4e487b71000000000000000000000000000000000000000000000000000000005f52603260045260245ffd5b7f4e487b71000000000000000000000000000000000000000000000000000000005f52601160045260245ffd5b5f61044e82610339565b915061045983610339565b925082820190508082111561047157610470610417565b5b92915050565b5f61048182610339565b915061048c83610339565b925082820261049a81610339565b915082820484148315176104b1576104b0610417565b5b5092915050565b5f6104c282610339565b91506104cd83610339565b92508282039050818111156104e5576104e4610417565b5b92915050565b5f60ff82169050919050565b5f610501826104eb565b915060ff820361051457610513610417565b5b60018201905091905056fea2646970667358221220e945c3093630f6b82ef9160134b8697923e16207c6c682b489a3553ace3e150764736f6c634300081a0033",
					"opcodes": "PUSH1 0x80 PUSH1 0x40 MSTORE CALLVALUE DUP1 ISZERO PUSH2 0xF JUMPI PUSH0 DUP1 REVERT JUMPDEST POP PUSH1 0x1 PUSH0 DUP1 PUSH32 0x4900000000000000000000000000000000000000000000000000000000000000 PUSH31 0xFFFFFFFFFFFFFFFFFFFFFFFFFFFFFFFFFFFFFFFFFFFFFFFFFFFFFFFFFFFFFF NOT AND PUSH31 0xFFFFFFFFFFFFFFFFFFFFFFFFFFFFFFFFFFFFFFFFFFFFFFFFFFFFFFFFFFFFFF NOT AND DUP2 MSTORE PUSH1 0x20 ADD SWAP1 DUP2 MSTORE PUSH1 0x20 ADD PUSH0 KECCAK256 DUP2 SWAP1 SSTORE POP PUSH1 0x5 PUSH0 DUP1 PUSH32 0x5600000000000000000000000000000000000000000000000000000000000000 PUSH31 0xFFFFFFFFFFFFFFFFFFFFFFFFFFFFFFFFFFFFFFFFFFFFFFFFFFFFFFFFFFFFFF NOT AND PUSH31 0xFFFFFFFFFFFFFFFFFFFFFFFFFFFFFFFFFFFFFFFFFFFFFFFFFFFFFFFFFFFFFF NOT AND DUP2 MSTORE PUSH1 0x20 ADD SWAP1 DUP2 MSTORE PUSH1 0x20 ADD PUSH0 KECCAK256 DUP2 SWAP1 SSTORE POP PUSH1 0xA PUSH0 DUP1 PUSH32 0x5800000000000000000000000000000000000000000000000000000000000000 PUSH31 0xFFFFFFFFFFFFFFFFFFFFFFFFFFFFFFFFFFFFFFFFFFFFFFFFFFFFFFFFFFFFFF NOT AND PUSH31 0xFFFFFFFFFFFFFFFFFFFFFFFFFFFFFFFFFFFFFFFFFFFFFFFFFFFFFFFFFFFFFF NOT AND DUP2 MSTORE PUSH1 0x20 ADD SWAP1 DUP2 MSTORE PUSH1 0x20 ADD PUSH0 KECCAK256 DUP2 SWAP1 SSTORE POP PUSH1 0x32 PUSH0 DUP1 PUSH32 0x4C00000000000000000000000000000000000000000000000000000000000000 PUSH31 0xFFFFFFFFFFFFFFFFFFFFFFFFFFFFFFFFFFFFFFFFFFFFFFFFFFFFFFFFFFFFFF NOT AND PUSH31 0xFFFFFFFFFFFFFFFFFFFFFFFFFFFFFFFFFFFFFFFFFFFFFFFFFFFFFFFFFFFFFF NOT AND DUP2 MSTORE PUSH1 0x20 ADD SWAP1 DUP2 MSTORE PUSH1 0x20 ADD PUSH0 KECCAK256 DUP2 SWAP1 SSTORE POP PUSH1 0x64 PUSH0 DUP1 PUSH32 0x4300000000000000000000000000000000000000000000000000000000000000 PUSH31 0xFFFFFFFFFFFFFFFFFFFFFFFFFFFFFFFFFFFFFFFFFFFFFFFFFFFFFFFFFFFFFF NOT AND PUSH31 0xFFFFFFFFFFFFFFFFFFFFFFFFFFFFFFFFFFFFFFFFFFFFFFFFFFFFFFFFFFFFFF NOT AND DUP2 MSTORE PUSH1 0x20 ADD SWAP1 DUP2 MSTORE PUSH1 0x20 ADD PUSH0 KECCAK256 DUP2 SWAP1 SSTORE POP PUSH2 0x1F4 PUSH0 DUP1 PUSH32 0x4400000000000000000000000000000000000000000000000000000000000000 PUSH31 0xFFFFFFFFFFFFFFFFFFFFFFFFFFFFFFFFFFFFFFFFFFFFFFFFFFFFFFFFFFFFFF NOT AND PUSH31 0xFFFFFFFFFFFFFFFFFFFFFFFFFFFFFFFFFFFFFFFFFFFFFFFFFFFFFFFFFFFFFF NOT AND DUP2 MSTORE PUSH1 0x20 ADD SWAP1 DUP2 MSTORE PUSH1 0x20 ADD PUSH0 KECCAK256 DUP2 SWAP1 SSTORE POP PUSH2 0x3E8 PUSH0 DUP1 PUSH32 0x4D00000000000000000000000000000000000000000000000000000000000000 PUSH31 0xFFFFFFFFFFFFFFFFFFFFFFFFFFFFFFFFFFFFFFFFFFFFFFFFFFFFFFFFFFFFFF NOT AND PUSH31 0xFFFFFFFFFFFFFFFFFFFFFFFFFFFFFFFFFFFFFFFFFFFFFFFFFFFFFFFFFFFFFF NOT AND DUP2 MSTORE PUSH1 0x20 ADD SWAP1 DUP2 MSTORE PUSH1 0x20 ADD PUSH0 KECCAK256 DUP2 SWAP1 SSTORE POP PUSH2 0x555 DUP1 PUSH2 0x375 PUSH0 CODECOPY PUSH0 RETURN INVALID PUSH1 0x80 PUSH1 0x40 MSTORE CALLVALUE DUP1 ISZERO PUSH2 0xF JUMPI PUSH0 DUP1 REVERT JUMPDEST POP PUSH1 0x4 CALLDATASIZE LT PUSH2 0x34 JUMPI PUSH0 CALLDATALOAD PUSH1 0xE0 SHR DUP1 PUSH4 0x22A92F2D EQ PUSH2 0x38 JUMPI DUP1 PUSH4 0x65992A57 EQ PUSH2 0x68 JUMPI JUMPDEST PUSH0 DUP1 REVERT JUMPDEST PUSH2 0x52 PUSH1 0x4 DUP1 CALLDATASIZE SUB DUP2 ADD SWAP1 PUSH2 0x4D SWAP2 SWAP1 PUSH2 0x2F2 JUMP JUMPDEST PUSH2 0x98 JUMP JUMPDEST PUSH1 0x40 MLOAD PUSH2 0x5F SWAP2 SWAP1 PUSH2 0x351 JUMP JUMPDEST PUSH1 0x40 MLOAD DUP1 SWAP2 SUB SWAP1 RETURN JUMPDEST PUSH2 0x82 PUSH1 0x4 DUP1 CALLDATASIZE SUB DUP2 ADD SWAP1 PUSH2 0x7D SWAP2 SWAP1 PUSH2 0x3BF JUMP JUMPDEST PUSH2 0x191 JUMP JUMPDEST PUSH1 0x40 MLOAD PUSH2 0x8F SWAP2 SWAP1 PUSH2 0x351 JUMP JUMPDEST PUSH1 0x40 MLOAD DUP1 SWAP2 SUB SWAP1 RETURN JUMPDEST PUSH0 DUP1 DUP3 SWAP1 POP PUSH0 DUP2 MLOAD SWAP1 POP PUSH0 DUP1 PUSH0 DUP1 JUMPDEST DUP5 DUP2 PUSH1 0xFF AND LT ISZERO PUSH2 0x183 JUMPI DUP2 SWAP3 POP PUSH0 DUP1 DUP8 DUP4 PUSH1 0xFF AND DUP2 MLOAD DUP2 LT PUSH2 0xCD JUMPI PUSH2 0xCC PUSH2 0x3EA JUMP JUMPDEST JUMPDEST PUSH1 0x20 ADD ADD MLOAD PUSH1 0xF8 SHR PUSH1 0xF8 SHL PUSH31 0xFFFFFFFFFFFFFFFFFFFFFFFFFFFFFFFFFFFFFFFFFFFFFFFFFFFFFFFFFFFFFF NOT AND PUSH31 0xFFFFFFFFFFFFFFFFFFFFFFFFFFFFFFFFFFFFFFFFFFFFFFFFFFFFFFFFFFFFFF NOT AND DUP2 MSTORE PUSH1 0x20 ADD SWAP1 DUP2 MSTORE PUSH1 0x20 ADD PUSH0 KECCAK256 SLOAD SWAP2 POP DUP3 DUP3 GT ISZERO PUSH2 0x161 JUMPI DUP2 DUP5 PUSH2 0x140 SWAP2 SWAP1 PUSH2 0x444 JUMP JUMPDEST SWAP4 POP DUP3 PUSH1 0x2 PUSH2 0x14F SWAP2 SWAP1 PUSH2 0x477 JUMP JUMPDEST DUP5 PUSH2 0x15A SWAP2 SWAP1 PUSH2 0x4B8 JUMP JUMPDEST SWAP4 POP PUSH2 0x170 JUMP JUMPDEST DUP2 DUP5 PUSH2 0x16D SWAP2 SWAP1 PUSH2 0x444 JUMP JUMPDEST SWAP4 POP JUMPDEST DUP1 DUP1 PUSH2 0x17B SWAP1 PUSH2 0x4F7 JUMP JUMPDEST SWAP2 POP POP PUSH2 0xA7 JUMP JUMPDEST POP DUP3 SWAP6 POP POP POP POP POP POP SWAP2 SWAP1 POP JUMP JUMPDEST PUSH0 PUSH1 0x20 MSTORE DUP1 PUSH0 MSTORE PUSH1 0x40 PUSH0 KECCAK256 PUSH0 SWAP2 POP SWAP1 POP SLOAD DUP2 JUMP JUMPDEST PUSH0 PUSH1 0x40 MLOAD SWAP1 POP SWAP1 JUMP JUMPDEST PUSH0 DUP1 REVERT JUMPDEST PUSH0 DUP1 REVERT JUMPDEST PUSH0 DUP1 REVERT JUMPDEST PUSH0 DUP1 REVERT JUMPDEST PUSH0 PUSH1 0x1F NOT PUSH1 0x1F DUP4 ADD AND SWAP1 POP SWAP2 SWAP1 POP JUMP JUMPDEST PUSH32 0x4E487B7100000000000000000000000000000000000000000000000000000000 PUSH0 MSTORE PUSH1 0x41 PUSH1 0x4 MSTORE PUSH1 0x24 PUSH0 REVERT JUMPDEST PUSH2 0x204 DUP3 PUSH2 0x1BE JUMP JUMPDEST DUP2 ADD DUP2 DUP2 LT PUSH8 0xFFFFFFFFFFFFFFFF DUP3 GT OR ISZERO PUSH2 0x223 JUMPI PUSH2 0x222 PUSH2 0x1CE JUMP JUMPDEST JUMPDEST DUP1 PUSH1 0x40 MSTORE POP POP POP JUMP JUMPDEST PUSH0 PUSH2 0x235 PUSH2 0x1A5 JUMP JUMPDEST SWAP1 POP PUSH2 0x241 DUP3 DUP3 PUSH2 0x1FB JUMP JUMPDEST SWAP2 SWAP1 POP JUMP JUMPDEST PUSH0 PUSH8 0xFFFFFFFFFFFFFFFF DUP3 GT ISZERO PUSH2 0x260 JUMPI PUSH2 0x25F PUSH2 0x1CE JUMP JUMPDEST JUMPDEST PUSH2 0x269 DUP3 PUSH2 0x1BE JUMP JUMPDEST SWAP1 POP PUSH1 0x20 DUP2 ADD SWAP1 POP SWAP2 SWAP1 POP JUMP JUMPDEST DUP3 DUP2 DUP4 CALLDATACOPY PUSH0 DUP4 DUP4 ADD MSTORE POP POP POP JUMP JUMPDEST PUSH0 PUSH2 0x296 PUSH2 0x291 DUP5 PUSH2 0x246 JUMP JUMPDEST PUSH2 0x22C JUMP JUMPDEST SWAP1 POP DUP3 DUP2 MSTORE PUSH1 0x20 DUP2 ADD DUP5 DUP5 DUP5 ADD GT ISZERO PUSH2 0x2B2 JUMPI PUSH2 0x2B1 PUSH2 0x1BA JUMP JUMPDEST JUMPDEST PUSH2 0x2BD DUP5 DUP3 DUP6 PUSH2 0x276 JUMP JUMPDEST POP SWAP4 SWAP3 POP POP POP JUMP JUMPDEST PUSH0 DUP3 PUSH1 0x1F DUP4 ADD SLT PUSH2 0x2D9 JUMPI PUSH2 0x2D8 PUSH2 0x1B6 JUMP JUMPDEST JUMPDEST DUP2 CALLDATALOAD PUSH2 0x2E9 DUP5 DUP3 PUSH1 0x20 DUP7 ADD PUSH2 0x284 JUMP JUMPDEST SWAP2 POP POP SWAP3 SWAP2 POP POP JUMP JUMPDEST PUSH0 PUSH1 0x20 DUP3 DUP5 SUB SLT ISZERO PUSH2 0x307 JUMPI PUSH2 0x306 PUSH2 0x1AE JUMP JUMPDEST JUMPDEST PUSH0 DUP3 ADD CALLDATALOAD PUSH8 0xFFFFFFFFFFFFFFFF DUP2 GT ISZERO PUSH2 0x324 JUMPI PUSH2 0x323 PUSH2 0x1B2 JUMP JUMPDEST JUMPDEST PUSH2 0x330 DUP5 DUP3 DUP6 ADD PUSH2 0x2C5 JUMP JUMPDEST SWAP2 POP POP SWAP3 SWAP2 POP POP JUMP JUMPDEST PUSH0 DUP2 SWAP1 POP SWAP2 SWAP1 POP JUMP JUMPDEST PUSH2 0x34B DUP2 PUSH2 0x339 JUMP JUMPDEST DUP3 MSTORE POP POP JUMP JUMPDEST PUSH0 PUSH1 0x20 DUP3 ADD SWAP1 POP PUSH2 0x364 PUSH0 DUP4 ADD DUP5 PUSH2 0x342 JUMP JUMPDEST SWAP3 SWAP2 POP POP JUMP JUMPDEST PUSH0 PUSH32 0xFF00000000000000000000000000000000000000000000000000000000000000 DUP3 AND SWAP1 POP SWAP2 SWAP1 POP JUMP JUMPDEST PUSH2 0x39E DUP2 PUSH2 0x36A JUMP JUMPDEST DUP2 EQ PUSH2 0x3A8 JUMPI PUSH0 DUP1 REVERT JUMPDEST POP JUMP JUMPDEST PUSH0 DUP2 CALLDATALOAD SWAP1 POP PUSH2 0x3B9 DUP2 PUSH2 0x395 JUMP JUMPDEST SWAP3 SWAP2 POP POP JUMP JUMPDEST PUSH0 PUSH1 0x20 DUP3 DUP5 SUB SLT ISZERO PUSH2 0x3D4 JUMPI PUSH2 0x3D3 PUSH2 0x1AE JUMP JUMPDEST JUMPDEST PUSH0 PUSH2 0x3E1 DUP5 DUP3 DUP6 ADD PUSH2 0x3AB JUMP JUMPDEST SWAP2 POP POP SWAP3 SWAP2 POP POP JUMP JUMPDEST PUSH32 0x4E487B7100000000000000000000000000000000000000000000000000000000 PUSH0 MSTORE PUSH1 0x32 PUSH1 0x4 MSTORE PUSH1 0x24 PUSH0 REVERT JUMPDEST PUSH32 0x4E487B7100000000000000000000000000000000000000000000000000000000 PUSH0 MSTORE PUSH1 0x11 PUSH1 0x4 MSTORE PUSH1 0x24 PUSH0 REVERT JUMPDEST PUSH0 PUSH2 0x44E DUP3 PUSH2 0x339 JUMP JUMPDEST SWAP2 POP PUSH2 0x459 DUP4 PUSH2 0x339 JUMP JUMPDEST SWAP3 POP DUP3 DUP3 ADD SWAP1 POP DUP1 DUP3 GT ISZERO PUSH2 0x471 JUMPI PUSH2 0x470 PUSH2 0x417 JUMP JUMPDEST JUMPDEST SWAP3 SWAP2 POP POP JUMP JUMPDEST PUSH0 PUSH2 0x481 DUP3 PUSH2 0x339 JUMP JUMPDEST SWAP2 POP PUSH2 0x48C DUP4 PUSH2 0x339 JUMP JUMPDEST SWAP3 POP DUP3 DUP3 MUL PUSH2 0x49A DUP2 PUSH2 0x339 JUMP JUMPDEST SWAP2 POP DUP3 DUP3 DIV DUP5 EQ DUP4 ISZERO OR PUSH2 0x4B1 JUMPI PUSH2 0x4B0 PUSH2 0x417 JUMP JUMPDEST JUMPDEST POP SWAP3 SWAP2 POP POP JUMP JUMPDEST PUSH0 PUSH2 0x4C2 DUP3 PUSH2 0x339 JUMP JUMPDEST SWAP2 POP PUSH2 0x4CD DUP4 PUSH2 0x339 JUMP JUMPDEST SWAP3 POP DUP3 DUP3 SUB SWAP1 POP DUP2 DUP2 GT ISZERO PUSH2 0x4E5 JUMPI PUSH2 0x4E4 PUSH2 0x417 JUMP JUMPDEST JUMPDEST SWAP3 SWAP2 POP POP JUMP JUMPDEST PUSH0 PUSH1 0xFF DUP3 AND SWAP1 POP SWAP2 SWAP1 POP JUMP JUMPDEST PUSH0 PUSH2 0x501 DUP3 PUSH2 0x4EB JUMP JUMPDEST SWAP2 POP PUSH1 0xFF DUP3 SUB PUSH2 0x514 JUMPI PUSH2 0x513 PUSH2 0x417 JUMP JUMPDEST JUMPDEST PUSH1 0x1 DUP3 ADD SWAP1 POP SWAP2 SWAP1 POP JUMP INVALID LOG2 PUSH5 0x6970667358 0x22 SLT KECCAK256 0xE9 GASLIMIT 0xC3 MULMOD CALLDATASIZE ADDRESS 0xF6 0xB8 0x2E 0xF9 AND ADD CALLVALUE 0xB8 PUSH10 0x7923E16207C6C682B489 LOG3 SSTORE GASPRICE 0xCE RETURNDATACOPY ISZERO SMOD PUSH5 0x736F6C6343 STOP ADDMOD BYTE STOP CALLER "
				},
				"gasEstimates": {
					"creation": {
						"codeDepositCost": "273000",
						"executionCost": "155766",
						"totalCost": "428766"
					},
					"external": {
						"_map(bytes1)": "2759",
						"roman2Int(string)": "infinite"
					}
				},
				"methodIdentifiers": {
					"_map(bytes1)": "65992a57",
					"roman2Int(string)": "22a92f2d"
				}
			},
			"storageLayout": {
				"storage": [
					{
						"astId": 6,
						"contract": "task1/romanToInt.sol:RomanToInt",
						"label": "_map",
						"offset": 0,
						"slot": "0",
						"type": "t_mapping(t_bytes1,t_uint256)"
					}
				],
				"types": {
					"t_bytes1": {
						"encoding": "inplace",
						"label": "bytes1",
						"numberOfBytes": "1"
					},
					"t_mapping(t_bytes1,t_uint256)": {
						"encoding": "mapping",
						"key": "t_bytes1",
						"label": "mapping(bytes1 => uint256)",
						"numberOfBytes": "32",
						"value": "t_uint256"
					},
					"t_uint256": {
						"encoding": "inplace",
						"label": "uint256",
						"numberOfBytes": "32"
					}
				}
			},
			"userdoc": {
				"kind": "user",
				"methods": {},
				"notice": "罗马数字包含以下七种字符: I， V， X， L，C，D 和 M。 字符          数值 I             1 V             5 X             10 L             50 C             100 D             500 M             1000 例如， 罗马数字 2 写做 II ，即为两个并列的 1 。12 写做 XII ，即为 X + II 。 27 写做  XXVII, 即为 XX + V + II 。 通常情况下，罗马数字中小的数字在大的数字的右边。但也存在特例，例如 4 不写做 IIII，而是 IV。数字 1 在数字 5 的左边，所表示的数等于大数 5 减小数 1 得到的数值 4 。同样地，数字 9 表示为 IX。这个特殊的规则只适用于以下六种情况： I 可以放在 V (5) 和 X (10) 的左边，来表示 4 和 9。 X 可以放在 L (50) 和 C (100) 的左边，来表示 40 和 90。  C 可以放在 D (500) 和 M (1000) 的左边，来表示 400 和 900。 给定一个罗马数字，将其转换成整数。*",
				"version": 1
			}
		}
	}
}